{
  "_format": "hh-sol-artifact-1",
  "contractName": "Create",
  "sourceName": "contracts/VotingContract.sol",
  "abi": [
    {
      "inputs": [],
      "stateMutability": "nonpayable",
      "type": "constructor"
    },
    {
      "anonymous": false,
      "inputs": [
        {
          "indexed": true,
          "internalType": "uint256",
          "name": "candidateId",
          "type": "uint256"
        },
        {
          "indexed": false,
          "internalType": "string",
          "name": "profile",
          "type": "string"
        },
        {
          "indexed": false,
          "internalType": "string",
          "name": "name",
          "type": "string"
        },
        {
          "indexed": false,
          "internalType": "string",
          "name": "image",
          "type": "string"
        },
        {
          "indexed": false,
          "internalType": "uint256",
          "name": "voteCount",
          "type": "uint256"
        },
        {
          "indexed": false,
          "internalType": "address",
          "name": "_address",
          "type": "address"
        },
        {
          "indexed": false,
          "internalType": "string",
          "name": "ipfs",
          "type": "string"
        }
      ],
      "name": "CandidateCreate",
      "type": "event"
    },
    {
      "anonymous": false,
      "inputs": [
        {
          "indexed": true,
          "internalType": "uint256",
          "name": "voter_voterId",
          "type": "uint256"
        },
        {
          "indexed": false,
          "internalType": "string",
          "name": "voter_name",
          "type": "string"
        },
        {
          "indexed": false,
          "internalType": "string",
          "name": "voter_image",
          "type": "string"
        },
        {
          "indexed": false,
          "internalType": "address",
          "name": "voter_address",
          "type": "address"
        },
        {
          "indexed": false,
          "internalType": "uint256",
          "name": "voter_allowed",
          "type": "uint256"
        },
        {
          "indexed": false,
          "internalType": "bool",
          "name": "voter_voted",
          "type": "bool"
        },
        {
          "indexed": false,
          "internalType": "uint256",
          "name": "voter_vote",
          "type": "uint256"
        },
        {
          "indexed": false,
          "internalType": "string",
          "name": "voter_ipfs",
          "type": "string"
        }
      ],
      "name": "VoterCreated",
      "type": "event"
    },
    {
      "inputs": [],
      "name": "_candidateId",
      "outputs": [
        {
          "internalType": "uint256",
          "name": "_value",
          "type": "uint256"
        }
      ],
      "stateMutability": "view",
      "type": "function"
    },
    {
      "inputs": [],
      "name": "_voterId",
      "outputs": [
        {
          "internalType": "uint256",
          "name": "_value",
          "type": "uint256"
        }
      ],
      "stateMutability": "view",
      "type": "function"
    },
    {
      "inputs": [],
      "name": "announceWinner",
      "outputs": [
        {
          "internalType": "address",
          "name": "",
          "type": "address"
        }
      ],
      "stateMutability": "view",
      "type": "function"
    },
    {
      "inputs": [
        {
          "internalType": "uint256",
          "name": "",
          "type": "uint256"
        }
      ],
      "name": "candidateAddress",
      "outputs": [
        {
          "internalType": "address",
          "name": "",
          "type": "address"
        }
      ],
      "stateMutability": "view",
      "type": "function"
    },
    {
      "inputs": [
        {
          "internalType": "address",
          "name": "",
          "type": "address"
        }
      ],
      "name": "candidates",
      "outputs": [
        {
          "internalType": "uint256",
          "name": "candidateId",
          "type": "uint256"
        },
        {
          "internalType": "string",
          "name": "profile",
          "type": "string"
        },
        {
          "internalType": "string",
          "name": "name",
          "type": "string"
        },
        {
          "internalType": "string",
          "name": "image",
          "type": "string"
        },
        {
          "internalType": "uint256",
          "name": "voteCount",
          "type": "uint256"
        },
        {
          "internalType": "address",
          "name": "_address",
          "type": "address"
        },
        {
          "internalType": "string",
          "name": "ipfs",
          "type": "string"
        }
      ],
      "stateMutability": "view",
      "type": "function"
    },
    {
      "inputs": [],
      "name": "electionEndTime",
      "outputs": [
        {
          "internalType": "uint256",
          "name": "",
          "type": "uint256"
        }
      ],
      "stateMutability": "view",
      "type": "function"
    },
    {
      "inputs": [],
      "name": "getCandidate",
      "outputs": [
        {
          "internalType": "address[]",
          "name": "",
          "type": "address[]"
        }
      ],
      "stateMutability": "view",
      "type": "function"
    },
    {
      "inputs": [
        {
          "internalType": "address",
          "name": "_address",
          "type": "address"
        }
      ],
      "name": "getCandidateData",
      "outputs": [
        {
          "internalType": "string",
          "name": "",
          "type": "string"
        },
        {
          "internalType": "string",
          "name": "",
          "type": "string"
        },
        {
          "internalType": "uint256",
          "name": "",
          "type": "uint256"
        },
        {
          "internalType": "string",
          "name": "",
          "type": "string"
        },
        {
          "internalType": "uint256",
          "name": "",
          "type": "uint256"
        },
        {
          "internalType": "string",
          "name": "",
          "type": "string"
        },
        {
          "internalType": "address",
          "name": "",
          "type": "address"
        }
      ],
      "stateMutability": "view",
      "type": "function"
    },
    {
      "inputs": [],
      "name": "getCandidateLength",
      "outputs": [
        {
          "internalType": "uint256",
          "name": "",
          "type": "uint256"
        }
      ],
      "stateMutability": "view",
      "type": "function"
    },
    {
      "inputs": [],
      "name": "getElectionEndTime",
      "outputs": [
        {
          "internalType": "uint256",
          "name": "",
          "type": "uint256"
        }
      ],
      "stateMutability": "view",
      "type": "function"
    },
    {
      "inputs": [],
      "name": "getVotedVoterList",
      "outputs": [
        {
          "internalType": "address[]",
          "name": "",
          "type": "address[]"
        }
      ],
      "stateMutability": "view",
      "type": "function"
    },
    {
      "inputs": [],
      "name": "getVoterLength",
      "outputs": [
        {
          "internalType": "uint256",
          "name": "",
          "type": "uint256"
        }
      ],
      "stateMutability": "view",
      "type": "function"
    },
    {
      "inputs": [],
      "name": "getVoterList",
      "outputs": [
        {
          "internalType": "address[]",
          "name": "",
          "type": "address[]"
        }
      ],
      "stateMutability": "view",
      "type": "function"
    },
    {
      "inputs": [
        {
          "internalType": "address",
          "name": "_address",
          "type": "address"
        }
      ],
      "name": "getVoterdata",
      "outputs": [
        {
          "internalType": "uint256",
          "name": "",
          "type": "uint256"
        },
        {
          "internalType": "string",
          "name": "",
          "type": "string"
        },
        {
          "internalType": "string",
          "name": "",
          "type": "string"
        },
        {
          "internalType": "address",
          "name": "",
          "type": "address"
        },
        {
          "internalType": "string",
          "name": "",
          "type": "string"
        },
        {
          "internalType": "uint256",
          "name": "",
          "type": "uint256"
        },
        {
          "internalType": "bool",
          "name": "",
          "type": "bool"
        }
      ],
      "stateMutability": "view",
      "type": "function"
    },
    {
      "inputs": [
        {
          "internalType": "address",
          "name": "_address",
          "type": "address"
        },
        {
          "internalType": "string",
          "name": "_profile",
          "type": "string"
        },
        {
          "internalType": "string",
          "name": "_name",
          "type": "string"
        },
        {
          "internalType": "string",
          "name": "_image",
          "type": "string"
        },
        {
          "internalType": "string",
          "name": "_ipfs",
          "type": "string"
        }
      ],
      "name": "setCandidate",
      "outputs": [],
      "stateMutability": "nonpayable",
      "type": "function"
    },
    {
      "inputs": [
        {
          "internalType": "uint256",
          "name": "_timeInSeconds",
          "type": "uint256"
        }
      ],
      "name": "setElectionTimer",
      "outputs": [],
      "stateMutability": "nonpayable",
      "type": "function"
    },
    {
      "inputs": [
        {
          "internalType": "address",
          "name": "_candidateAddress",
          "type": "address"
        },
        {
          "internalType": "uint256",
          "name": "_candidateVoteId",
          "type": "uint256"
        }
      ],
      "name": "vote",
      "outputs": [],
      "stateMutability": "nonpayable",
      "type": "function"
    },
    {
      "inputs": [
        {
          "internalType": "uint256",
          "name": "",
          "type": "uint256"
        }
      ],
      "name": "votedVoters",
      "outputs": [
        {
          "internalType": "address",
          "name": "",
          "type": "address"
        }
      ],
      "stateMutability": "view",
      "type": "function"
    },
    {
      "inputs": [
        {
          "internalType": "address",
          "name": "_address",
          "type": "address"
        },
        {
          "internalType": "string",
          "name": "_name",
          "type": "string"
        },
        {
          "internalType": "string",
          "name": "_image",
          "type": "string"
        },
        {
          "internalType": "string",
          "name": "_ipfs",
          "type": "string"
        }
      ],
      "name": "voterRight",
      "outputs": [],
      "stateMutability": "nonpayable",
      "type": "function"
    },
    {
      "inputs": [
        {
          "internalType": "address",
          "name": "",
          "type": "address"
        }
      ],
      "name": "voters",
      "outputs": [
        {
          "internalType": "uint256",
          "name": "voter_voterId",
          "type": "uint256"
        },
        {
          "internalType": "string",
          "name": "voter_name",
          "type": "string"
        },
        {
          "internalType": "string",
          "name": "voter_image",
          "type": "string"
        },
        {
          "internalType": "address",
          "name": "voter_address",
          "type": "address"
        },
        {
          "internalType": "uint256",
          "name": "voter_allowed",
          "type": "uint256"
        },
        {
          "internalType": "bool",
          "name": "voter_voted",
          "type": "bool"
        },
        {
          "internalType": "uint256",
          "name": "voter_vote",
          "type": "uint256"
        },
        {
          "internalType": "string",
          "name": "voter_ipfs",
          "type": "string"
        }
      ],
      "stateMutability": "view",
      "type": "function"
    },
    {
      "inputs": [
        {
          "internalType": "uint256",
          "name": "",
          "type": "uint256"
        }
      ],
      "name": "votersAddress",
      "outputs": [
        {
          "internalType": "address",
          "name": "",
          "type": "address"
        }
      ],
      "stateMutability": "view",
      "type": "function"
    },
    {
      "inputs": [],
      "name": "votingOrganizer",
      "outputs": [
        {
          "internalType": "address",
          "name": "",
          "type": "address"
        }
      ],
      "stateMutability": "view",
      "type": "function"
    }
  ],
  "bytecode": "0x608060405234801561001057600080fd5b5033600260006101000a81548173ffffffffffffffffffffffffffffffffffffffff021916908373ffffffffffffffffffffffffffffffffffffffff1602179055506129f3806100616000396000f3fe608060405234801561001057600080fd5b50600436106101425760003560e01c80637831ffb3116100b8578063a73889671161007c578063a7388967146103a0578063b28d92ae146103be578063b9be3152146103dc578063c5036fd4146103fa578063c91ec71214610430578063f7522a831461044c57610142565b80637831ffb3146102c75780638ab66a90146102f75780638e9456851461032d5780639e136e641461034b578063a3ec138d1461036957610142565b806343242daa1161010a57806343242daa146102055780635560b118146102355780635cc48aa7146102535780635f74bbde1461027157806370218b851461028d57806376e19bb2146102ab57610142565b80630361419e1461014757806305ad45a4146101635780632a466ac7146101815780632d8cd096146101b75780633a88251a146101d5575b600080fd5b610161600480360381019061015c9190611dca565b61046a565b005b61016b61072d565b6040516101789190611e9e565b60405180910390f35b61019b60048036038101906101969190611eb9565b61073a565b6040516101ae9796959493929190611f7d565b60405180910390f35b6101bf610a83565b6040516101cc9190612008565b60405180910390f35b6101ef60048036038101906101ea919061204f565b610b8a565b6040516101fc9190612008565b60405180910390f35b61021f600480360381019061021a919061204f565b610bc9565b60405161022c9190612008565b60405180910390f35b61023d610c08565b60405161024a9190611e9e565b60405180910390f35b61025b610c12565b6040516102689190612008565b60405180910390f35b61028b6004803603810190610286919061207c565b610c38565b005b610295610e44565b6040516102a2919061217a565b60405180910390f35b6102c560048036038101906102c0919061204f565b610ed2565b005b6102e160048036038101906102dc919061204f565b611002565b6040516102ee9190612008565b60405180910390f35b610311600480360381019061030c9190611eb9565b611041565b604051610324979695949392919061219c565b60405180910390f35b6103356112c3565b604051610342919061217a565b60405180910390f35b610353611351565b6040516103609190611e9e565b60405180910390f35b610383600480360381019061037e9190611eb9565b611357565b604051610397989796959493929190612242565b60405180910390f35b6103a8611564565b6040516103b59190611e9e565b60405180910390f35b6103c6611570565b6040516103d3919061217a565b60405180910390f35b6103e46115fe565b6040516103f19190611e9e565b60405180910390f35b610414600480360381019061040f9190611eb9565b61160a565b60405161042797969594939291906122d5565b60405180910390f35b61044a60048036038101906104459190612359565b6118e7565b005b610454611b3e565b6040516104619190611e9e565b60405180910390f35b600260009054906101000a900473ffffffffffffffffffffffffffffffffffffffff1673ffffffffffffffffffffffffffffffffffffffff163373ffffffffffffffffffffffffffffffffffffffff16146104fa576040517f08c379a00000000000000000000000000000000000000000000000000000000081526004016104f1906124b6565b60405180910390fd5b6105046000611b4b565b60006105106000611b61565b90506000600860008773ffffffffffffffffffffffffffffffffffffffff1673ffffffffffffffffffffffffffffffffffffffff1681526020019081526020016000209050600081600401541461059c576040517f08c379a000000000000000000000000000000000000000000000000000000000815260040161059390612522565b60405180910390fd5b60018160040181905550848160010190805190602001906105be929190611b6f565b50838160020190805190602001906105d7929190611b6f565b50858160030160006101000a81548173ffffffffffffffffffffffffffffffffffffffff021916908373ffffffffffffffffffffffffffffffffffffffff1602179055508181600001819055506103e8816006018190555060008160050160006101000a81548160ff02191690831515021790555082816007019080519060200190610664929190611b6f565b506007869080600181540180825580915050600190039060005260206000200160009091909190916101000a81548173ffffffffffffffffffffffffffffffffffffffff021916908373ffffffffffffffffffffffffffffffffffffffff160217905550817ff5f39971dd62d9929e3a9feaa6bb77fe7c7da0001babff8a65a7e51ad0201c1986868985600401548660050160009054906101000a900460ff1687600601548a60405161071d9796959493929190612542565b60405180910390a2505050505050565b6000600780549050905090565b6060806000606060006060600080600560008a73ffffffffffffffffffffffffffffffffffffffff1673ffffffffffffffffffffffffffffffffffffffff1681526020019081526020016000206040518060e0016040529081600082015481526020016001820180546107ac906125f5565b80601f01602080910402602001604051908101604052809291908181526020018280546107d8906125f5565b80156108255780601f106107fa57610100808354040283529160200191610825565b820191906000526020600020905b81548152906001019060200180831161080857829003601f168201915b5050505050815260200160028201805461083e906125f5565b80601f016020809104026020016040519081016040528092919081815260200182805461086a906125f5565b80156108b75780601f1061088c576101008083540402835291602001916108b7565b820191906000526020600020905b81548152906001019060200180831161089a57829003601f168201915b505050505081526020016003820180546108d0906125f5565b80601f01602080910402602001604051908101604052809291908181526020018280546108fc906125f5565b80156109495780601f1061091e57610100808354040283529160200191610949565b820191906000526020600020905b81548152906001019060200180831161092c57829003601f168201915b50505050508152602001600482015481526020016005820160009054906101000a900473ffffffffffffffffffffffffffffffffffffffff1673ffffffffffffffffffffffffffffffffffffffff1673ffffffffffffffffffffffffffffffffffffffff1681526020016006820180546109c2906125f5565b80601f01602080910402602001604051908101604052809291908181526020018280546109ee906125f5565b8015610a3b5780601f10610a1057610100808354040283529160200191610a3b565b820191906000526020600020905b815481529060010190602001808311610a1e57829003601f168201915b5050505050815250509050806020015181604001518260000151836060015184608001518560c001518660a00151975097509750975097509750975050919395979092949650565b6000806000805b600480549050811015610b8157600060048281548110610aad57610aac612627565b5b9060005260206000200160009054906101000a900473ffffffffffffffffffffffffffffffffffffffff16905082600560008373ffffffffffffffffffffffffffffffffffffffff1673ffffffffffffffffffffffffffffffffffffffff168152602001908152602001600020600401541115610b6d57600560008273ffffffffffffffffffffffffffffffffffffffff1673ffffffffffffffffffffffffffffffffffffffff1681526020019081526020016000206004015492508093505b508080610b7990612685565b915050610a8a565b50819250505090565b60048181548110610b9a57600080fd5b906000526020600020016000915054906101000a900473ffffffffffffffffffffffffffffffffffffffff1681565b60078181548110610bd957600080fd5b906000526020600020016000915054906101000a900473ffffffffffffffffffffffffffffffffffffffff1681565b6000600354905090565b600260009054906101000a900473ffffffffffffffffffffffffffffffffffffffff1681565b6000600860003373ffffffffffffffffffffffffffffffffffffffff1673ffffffffffffffffffffffffffffffffffffffff16815260200190815260200160002090508060050160009054906101000a900460ff1615610ccd576040517f08c379a0000000000000000000000000000000000000000000000000000000008152600401610cc49061271a565b60405180910390fd5b600081600401541415610d15576040517f08c379a0000000000000000000000000000000000000000000000000000000008152600401610d0c90612786565b60405180910390fd5b6003544210610d59576040517f08c379a0000000000000000000000000000000000000000000000000000000008152600401610d50906127f2565b60405180910390fd5b60018160050160006101000a81548160ff0219169083151502179055508181600601819055506006339080600181540180825580915050600190039060005260206000200160009091909190916101000a81548173ffffffffffffffffffffffffffffffffffffffff021916908373ffffffffffffffffffffffffffffffffffffffff1602179055508060040154600560008573ffffffffffffffffffffffffffffffffffffffff1673ffffffffffffffffffffffffffffffffffffffff1681526020019081526020016000206004016000828254610e389190612812565b92505081905550505050565b60606004805480602002602001604051908101604052809291908181526020018280548015610ec857602002820191906000526020600020905b8160009054906101000a900473ffffffffffffffffffffffffffffffffffffffff1673ffffffffffffffffffffffffffffffffffffffff1681526020019060010190808311610e7e575b5050505050905090565b600260009054906101000a900473ffffffffffffffffffffffffffffffffffffffff1673ffffffffffffffffffffffffffffffffffffffff163373ffffffffffffffffffffffffffffffffffffffff1614610f62576040517f08c379a0000000000000000000000000000000000000000000000000000000008152600401610f59906124b6565b60405180910390fd5b60008111610fa5576040517f08c379a0000000000000000000000000000000000000000000000000000000008152600401610f9c906128b4565b60405180910390fd5b60008142610fb39190612812565b9050428111610ff7576040517f08c379a0000000000000000000000000000000000000000000000000000000008152600401610fee90612920565b60405180910390fd5b806003819055505050565b6006818154811061101257600080fd5b906000526020600020016000915054906101000a900473ffffffffffffffffffffffffffffffffffffffff1681565b600560205280600052604060002060009150905080600001549080600101805461106a906125f5565b80601f0160208091040260200160405190810160405280929190818152602001828054611096906125f5565b80156110e35780601f106110b8576101008083540402835291602001916110e3565b820191906000526020600020905b8154815290600101906020018083116110c657829003601f168201915b5050505050908060020180546110f8906125f5565b80601f0160208091040260200160405190810160405280929190818152602001828054611124906125f5565b80156111715780601f1061114657610100808354040283529160200191611171565b820191906000526020600020905b81548152906001019060200180831161115457829003601f168201915b505050505090806003018054611186906125f5565b80601f01602080910402602001604051908101604052809291908181526020018280546111b2906125f5565b80156111ff5780601f106111d4576101008083540402835291602001916111ff565b820191906000526020600020905b8154815290600101906020018083116111e257829003601f168201915b5050505050908060040154908060050160009054906101000a900473ffffffffffffffffffffffffffffffffffffffff1690806006018054611240906125f5565b80601f016020809104026020016040519081016040528092919081815260200182805461126c906125f5565b80156112b95780601f1061128e576101008083540402835291602001916112b9565b820191906000526020600020905b81548152906001019060200180831161129c57829003601f168201915b5050505050905087565b6060600680548060200260200160405190810160405280929190818152602001828054801561134757602002820191906000526020600020905b8160009054906101000a900473ffffffffffffffffffffffffffffffffffffffff1673ffffffffffffffffffffffffffffffffffffffff16815260200190600101908083116112fd575b5050505050905090565b60035481565b6008602052806000526040600020600091509050806000015490806001018054611380906125f5565b80601f01602080910402602001604051908101604052809291908181526020018280546113ac906125f5565b80156113f95780601f106113ce576101008083540402835291602001916113f9565b820191906000526020600020905b8154815290600101906020018083116113dc57829003601f168201915b50505050509080600201805461140e906125f5565b80601f016020809104026020016040519081016040528092919081815260200182805461143a906125f5565b80156114875780601f1061145c57610100808354040283529160200191611487565b820191906000526020600020905b81548152906001019060200180831161146a57829003601f168201915b5050505050908060030160009054906101000a900473ffffffffffffffffffffffffffffffffffffffff16908060040154908060050160009054906101000a900460ff16908060060154908060070180546114e1906125f5565b80601f016020809104026020016040519081016040528092919081815260200182805461150d906125f5565b801561155a5780601f1061152f5761010080835404028352916020019161155a565b820191906000526020600020905b81548152906001019060200180831161153d57829003601f168201915b5050505050905088565b60018060000154905081565b606060078054806020026020016040519081016040528092919081815260200182805480156115f457602002820191906000526020600020905b8160009054906101000a900473ffffffffffffffffffffffffffffffffffffffff1673ffffffffffffffffffffffffffffffffffffffff16815260200190600101908083116115aa575b5050505050905090565b60008060000154905081565b6000606080600060606000806000600860008a73ffffffffffffffffffffffffffffffffffffffff1673ffffffffffffffffffffffffffffffffffffffff168152602001908152602001600020604051806101000160405290816000820154815260200160018201805461167d906125f5565b80601f01602080910402602001604051908101604052809291908181526020018280546116a9906125f5565b80156116f65780601f106116cb576101008083540402835291602001916116f6565b820191906000526020600020905b8154815290600101906020018083116116d957829003601f168201915b5050505050815260200160028201805461170f906125f5565b80601f016020809104026020016040519081016040528092919081815260200182805461173b906125f5565b80156117885780601f1061175d57610100808354040283529160200191611788565b820191906000526020600020905b81548152906001019060200180831161176b57829003601f168201915b505050505081526020016003820160009054906101000a900473ffffffffffffffffffffffffffffffffffffffff1673ffffffffffffffffffffffffffffffffffffffff1673ffffffffffffffffffffffffffffffffffffffff168152602001600482015481526020016005820160009054906101000a900460ff1615151515815260200160068201548152602001600782018054611826906125f5565b80601f0160208091040260200160405190810160405280929190818152602001828054611852906125f5565b801561189f5780601f106118745761010080835404028352916020019161189f565b820191906000526020600020905b81548152906001019060200180831161188257829003601f168201915b505050505081525050905080600001518160200151826040015183606001518460e0015185608001518660a00151975097509750975097509750975050919395979092949650565b600260009054906101000a900473ffffffffffffffffffffffffffffffffffffffff1673ffffffffffffffffffffffffffffffffffffffff163373ffffffffffffffffffffffffffffffffffffffff1614611977576040517f08c379a000000000000000000000000000000000000000000000000000000000815260040161196e906124b6565b60405180910390fd5b6119816001611b4b565b600061198d6001611b61565b90506000600560008873ffffffffffffffffffffffffffffffffffffffff1673ffffffffffffffffffffffffffffffffffffffff1681526020019081526020016000209050858160010190805190602001906119ea929190611b6f565b5084816002019080519060200190611a03929190611b6f565b5081816000018190555083816003019080519060200190611a25929190611b6f565b5060008160040181905550868160050160006101000a81548173ffffffffffffffffffffffffffffffffffffffff021916908373ffffffffffffffffffffffffffffffffffffffff16021790555082816006019080519060200190611a8b929190611b6f565b506004879080600181540180825580915050600190039060005260206000200160009091909190916101000a81548173ffffffffffffffffffffffffffffffffffffffff021916908373ffffffffffffffffffffffffffffffffffffffff160217905550817fd297f12b256bb8485a6013fb5e302017018123e99a0ebb20756c09e1707b4b9087878785600401548c89604051611b2d96959493929190612940565b60405180910390a250505050505050565b6000600480549050905090565b6001816000016000828254019250508190555050565b600081600001549050919050565b828054611b7b906125f5565b90600052602060002090601f016020900481019282611b9d5760008555611be4565b82601f10611bb657805160ff1916838001178555611be4565b82800160010185558215611be4579182015b82811115611be3578251825591602001919060010190611bc8565b5b509050611bf19190611bf5565b5090565b5b80821115611c0e576000816000905550600101611bf6565b5090565b6000604051905090565b600080fd5b600080fd5b600073ffffffffffffffffffffffffffffffffffffffff82169050919050565b6000611c5182611c26565b9050919050565b611c6181611c46565b8114611c6c57600080fd5b50565b600081359050611c7e81611c58565b92915050565b600080fd5b600080fd5b6000601f19601f8301169050919050565b7f4e487b7100000000000000000000000000000000000000000000000000000000600052604160045260246000fd5b611cd782611c8e565b810181811067ffffffffffffffff82111715611cf657611cf5611c9f565b5b80604052505050565b6000611d09611c12565b9050611d158282611cce565b919050565b600067ffffffffffffffff821115611d3557611d34611c9f565b5b611d3e82611c8e565b9050602081019050919050565b82818337600083830152505050565b6000611d6d611d6884611d1a565b611cff565b905082815260208101848484011115611d8957611d88611c89565b5b611d94848285611d4b565b509392505050565b600082601f830112611db157611db0611c84565b5b8135611dc1848260208601611d5a565b91505092915050565b60008060008060808587031215611de457611de3611c1c565b5b6000611df287828801611c6f565b945050602085013567ffffffffffffffff811115611e1357611e12611c21565b5b611e1f87828801611d9c565b935050604085013567ffffffffffffffff811115611e4057611e3f611c21565b5b611e4c87828801611d9c565b925050606085013567ffffffffffffffff811115611e6d57611e6c611c21565b5b611e7987828801611d9c565b91505092959194509250565b6000819050919050565b611e9881611e85565b82525050565b6000602082019050611eb36000830184611e8f565b92915050565b600060208284031215611ecf57611ece611c1c565b5b6000611edd84828501611c6f565b91505092915050565b600081519050919050565b600082825260208201905092915050565b60005b83811015611f20578082015181840152602081019050611f05565b83811115611f2f576000848401525b50505050565b6000611f4082611ee6565b611f4a8185611ef1565b9350611f5a818560208601611f02565b611f6381611c8e565b840191505092915050565b611f7781611c46565b82525050565b600060e0820190508181036000830152611f97818a611f35565b90508181036020830152611fab8189611f35565b9050611fba6040830188611e8f565b8181036060830152611fcc8187611f35565b9050611fdb6080830186611e8f565b81810360a0830152611fed8185611f35565b9050611ffc60c0830184611f6e565b98975050505050505050565b600060208201905061201d6000830184611f6e565b92915050565b61202c81611e85565b811461203757600080fd5b50565b60008135905061204981612023565b92915050565b60006020828403121561206557612064611c1c565b5b60006120738482850161203a565b91505092915050565b6000806040838503121561209357612092611c1c565b5b60006120a185828601611c6f565b92505060206120b28582860161203a565b9150509250929050565b600081519050919050565b600082825260208201905092915050565b6000819050602082019050919050565b6120f181611c46565b82525050565b600061210383836120e8565b60208301905092915050565b6000602082019050919050565b6000612127826120bc565b61213181856120c7565b935061213c836120d8565b8060005b8381101561216d57815161215488826120f7565b975061215f8361210f565b925050600181019050612140565b5085935050505092915050565b60006020820190508181036000830152612194818461211c565b905092915050565b600060e0820190506121b1600083018a611e8f565b81810360208301526121c38189611f35565b905081810360408301526121d78188611f35565b905081810360608301526121eb8187611f35565b90506121fa6080830186611e8f565b61220760a0830185611f6e565b81810360c08301526122198184611f35565b905098975050505050505050565b60008115159050919050565b61223c81612227565b82525050565b600061010082019050612258600083018b611e8f565b818103602083015261226a818a611f35565b9050818103604083015261227e8189611f35565b905061228d6060830188611f6e565b61229a6080830187611e8f565b6122a760a0830186612233565b6122b460c0830185611e8f565b81810360e08301526122c68184611f35565b90509998505050505050505050565b600060e0820190506122ea600083018a611e8f565b81810360208301526122fc8189611f35565b905081810360408301526123108188611f35565b905061231f6060830187611f6e565b81810360808301526123318186611f35565b905061234060a0830185611e8f565b61234d60c0830184612233565b98975050505050505050565b600080600080600060a0868803121561237557612374611c1c565b5b600061238388828901611c6f565b955050602086013567ffffffffffffffff8111156123a4576123a3611c21565b5b6123b088828901611d9c565b945050604086013567ffffffffffffffff8111156123d1576123d0611c21565b5b6123dd88828901611d9c565b935050606086013567ffffffffffffffff8111156123fe576123fd611c21565b5b61240a88828901611d9c565b925050608086013567ffffffffffffffff81111561242b5761242a611c21565b5b61243788828901611d9c565b9150509295509295909350565b7f4f6e6c79206f7267616e697a65722063616e2063616c6c20746869732066756e60008201527f6374696f6e000000000000000000000000000000000000000000000000000000602082015250565b60006124a0602583611ef1565b91506124ab82612444565b604082019050919050565b600060208201905081810360008301526124cf81612493565b9050919050565b7f566f74657220616c726561647920726567697374657265640000000000000000600082015250565b600061250c601883611ef1565b9150612517826124d6565b602082019050919050565b6000602082019050818103600083015261253b816124ff565b9050919050565b600060e082019050818103600083015261255c818a611f35565b905081810360208301526125708189611f35565b905061257f6040830188611f6e565b61258c6060830187611e8f565b6125996080830186612233565b6125a660a0830185611e8f565b81810360c08301526125b88184611f35565b905098975050505050505050565b7f4e487b7100000000000000000000000000000000000000000000000000000000600052602260045260246000fd5b6000600282049050600182168061260d57607f821691505b60208210811415612621576126206125c6565b5b50919050565b7f4e487b7100000000000000000000000000000000000000000000000000000000600052603260045260246000fd5b7f4e487b7100000000000000000000000000000000000000000000000000000000600052601160045260246000fd5b600061269082611e85565b91507fffffffffffffffffffffffffffffffffffffffffffffffffffffffffffffffff8214156126c3576126c2612656565b5b600182019050919050565b7f596f75206861766520616c726561647920766f74656400000000000000000000600082015250565b6000612704601683611ef1565b915061270f826126ce565b602082019050919050565b60006020820190508181036000830152612733816126f7565b9050919050565b7f596f752068617665206e6f20726967687420746f20766f746500000000000000600082015250565b6000612770601983611ef1565b915061277b8261273a565b602082019050919050565b6000602082019050818103600083015261279f81612763565b9050919050565b7f456c656374696f6e2068617320656e6465640000000000000000000000000000600082015250565b60006127dc601283611ef1565b91506127e7826127a6565b602082019050919050565b6000602082019050818103600083015261280b816127cf565b9050919050565b600061281d82611e85565b915061282883611e85565b9250827fffffffffffffffffffffffffffffffffffffffffffffffffffffffffffffffff0382111561285d5761285c612656565b5b828201905092915050565b7f54696d65206d7573742062652067726561746572207468616e207a65726f0000600082015250565b600061289e601e83611ef1565b91506128a982612868565b602082019050919050565b600060208201905081810360008301526128cd81612891565b9050919050565b7f496e76616c696420656c656374696f6e20656e642074696d6500000000000000600082015250565b600061290a601983611ef1565b9150612915826128d4565b602082019050919050565b60006020820190508181036000830152612939816128fd565b9050919050565b600060c082019050818103600083015261295a8189611f35565b9050818103602083015261296e8188611f35565b905081810360408301526129828187611f35565b90506129916060830186611e8f565b61299e6080830185611f6e565b81810360a08301526129b08184611f35565b905097965050505050505056fea264697066735822122029bac134797de16da228618b4554bd3a9ff169dcd517af6e56d86f7355e1e63864736f6c63430008090033",
  "linkReferences": {},
  "deployedLinkReferences": {}
}