{
  "_format": "hh-sol-artifact-1",
  "contractName": "Create",
  "sourceName": "contracts/VotingContract.sol",
  "abi": [
    {
      "inputs": [],
      "stateMutability": "nonpayable",
      "type": "constructor"
    },
    {
      "anonymous": false,
      "inputs": [
        {
          "indexed": true,
          "internalType": "uint256",
          "name": "candidateId",
          "type": "uint256"
        },
        {
          "indexed": false,
          "internalType": "string",
          "name": "age",
          "type": "string"
        },
        {
          "indexed": false,
          "internalType": "string",
          "name": "name",
          "type": "string"
        },
        {
          "indexed": false,
          "internalType": "string",
          "name": "image",
          "type": "string"
        },
        {
          "indexed": false,
          "internalType": "uint256",
          "name": "voteCount",
          "type": "uint256"
        },
        {
          "indexed": false,
          "internalType": "address",
          "name": "_address",
          "type": "address"
        },
        {
          "indexed": false,
          "internalType": "string",
          "name": "ipfs",
          "type": "string"
        }
      ],
      "name": "CandidateCreate",
      "type": "event"
    },
    {
      "anonymous": false,
      "inputs": [
        {
          "indexed": true,
          "internalType": "uint256",
          "name": "voter_voterId",
          "type": "uint256"
        },
        {
          "indexed": false,
          "internalType": "string",
          "name": "voter_name",
          "type": "string"
        },
        {
          "indexed": false,
          "internalType": "string",
          "name": "voter_image",
          "type": "string"
        },
        {
          "indexed": false,
          "internalType": "address",
          "name": "voter_address",
          "type": "address"
        },
        {
          "indexed": false,
          "internalType": "uint256",
          "name": "voter_allowed",
          "type": "uint256"
        },
        {
          "indexed": false,
          "internalType": "bool",
          "name": "voter_voted",
          "type": "bool"
        },
        {
          "indexed": false,
          "internalType": "uint256",
          "name": "voter_vote",
          "type": "uint256"
        },
        {
          "indexed": false,
          "internalType": "string",
          "name": "voter_ipfs",
          "type": "string"
        }
      ],
      "name": "VoterCreated",
      "type": "event"
    },
    {
      "inputs": [],
      "name": "_candidateId",
      "outputs": [
        {
          "internalType": "uint256",
          "name": "_value",
          "type": "uint256"
        }
      ],
      "stateMutability": "view",
      "type": "function"
    },
    {
      "inputs": [],
      "name": "_voterId",
      "outputs": [
        {
          "internalType": "uint256",
          "name": "_value",
          "type": "uint256"
        }
      ],
      "stateMutability": "view",
      "type": "function"
    },
    {
      "inputs": [
        {
          "internalType": "uint256",
          "name": "",
          "type": "uint256"
        }
      ],
      "name": "candidateAddress",
      "outputs": [
        {
          "internalType": "address",
          "name": "",
          "type": "address"
        }
      ],
      "stateMutability": "view",
      "type": "function"
    },
    {
      "inputs": [
        {
          "internalType": "address",
          "name": "",
          "type": "address"
        }
      ],
      "name": "candidates",
      "outputs": [
        {
          "internalType": "uint256",
          "name": "candidateId",
          "type": "uint256"
        },
        {
          "internalType": "string",
          "name": "age",
          "type": "string"
        },
        {
          "internalType": "string",
          "name": "name",
          "type": "string"
        },
        {
          "internalType": "string",
          "name": "image",
          "type": "string"
        },
        {
          "internalType": "uint256",
          "name": "voteCount",
          "type": "uint256"
        },
        {
          "internalType": "address",
          "name": "_address",
          "type": "address"
        },
        {
          "internalType": "string",
          "name": "ipfs",
          "type": "string"
        }
      ],
      "stateMutability": "view",
      "type": "function"
    },
    {
      "inputs": [],
      "name": "getCandidate",
      "outputs": [
        {
          "internalType": "address[]",
          "name": "",
          "type": "address[]"
        }
      ],
      "stateMutability": "view",
      "type": "function"
    },
    {
      "inputs": [
        {
          "internalType": "address",
          "name": "_address",
          "type": "address"
        }
      ],
      "name": "getCandidateData",
      "outputs": [
        {
          "internalType": "string",
          "name": "",
          "type": "string"
        },
        {
          "internalType": "string",
          "name": "",
          "type": "string"
        },
        {
          "internalType": "uint256",
          "name": "",
          "type": "uint256"
        },
        {
          "internalType": "string",
          "name": "",
          "type": "string"
        },
        {
          "internalType": "uint256",
          "name": "",
          "type": "uint256"
        },
        {
          "internalType": "string",
          "name": "",
          "type": "string"
        },
        {
          "internalType": "address",
          "name": "",
          "type": "address"
        }
      ],
      "stateMutability": "view",
      "type": "function"
    },
    {
      "inputs": [],
      "name": "getCandidateLength",
      "outputs": [
        {
          "internalType": "uint256",
          "name": "",
          "type": "uint256"
        }
      ],
      "stateMutability": "view",
      "type": "function"
    },
    {
      "inputs": [],
      "name": "getVotedVoterList",
      "outputs": [
        {
          "internalType": "address[]",
          "name": "",
          "type": "address[]"
        }
      ],
      "stateMutability": "view",
      "type": "function"
    },
    {
      "inputs": [],
      "name": "getVoterLength",
      "outputs": [
        {
          "internalType": "uint256",
          "name": "",
          "type": "uint256"
        }
      ],
      "stateMutability": "view",
      "type": "function"
    },
    {
      "inputs": [],
      "name": "getVoterList",
      "outputs": [
        {
          "internalType": "address[]",
          "name": "",
          "type": "address[]"
        }
      ],
      "stateMutability": "view",
      "type": "function"
    },
    {
      "inputs": [
        {
          "internalType": "address",
          "name": "_address",
          "type": "address"
        }
      ],
      "name": "getVoterdata",
      "outputs": [
        {
          "internalType": "uint256",
          "name": "",
          "type": "uint256"
        },
        {
          "internalType": "string",
          "name": "",
          "type": "string"
        },
        {
          "internalType": "string",
          "name": "",
          "type": "string"
        },
        {
          "internalType": "address",
          "name": "",
          "type": "address"
        },
        {
          "internalType": "string",
          "name": "",
          "type": "string"
        },
        {
          "internalType": "uint256",
          "name": "",
          "type": "uint256"
        },
        {
          "internalType": "bool",
          "name": "",
          "type": "bool"
        }
      ],
      "stateMutability": "view",
      "type": "function"
    },
    {
      "inputs": [
        {
          "internalType": "address",
          "name": "_address",
          "type": "address"
        },
        {
          "internalType": "string",
          "name": "_age",
          "type": "string"
        },
        {
          "internalType": "string",
          "name": "_name",
          "type": "string"
        },
        {
          "internalType": "string",
          "name": "_image",
          "type": "string"
        },
        {
          "internalType": "string",
          "name": "_ipfs",
          "type": "string"
        }
      ],
      "name": "setCandidate",
      "outputs": [],
      "stateMutability": "nonpayable",
      "type": "function"
    },
    {
      "inputs": [
        {
          "internalType": "address",
          "name": "_candidateAddress",
          "type": "address"
        },
        {
          "internalType": "uint256",
          "name": "_candidateVoteId",
          "type": "uint256"
        }
      ],
      "name": "vote",
      "outputs": [],
      "stateMutability": "nonpayable",
      "type": "function"
    },
    {
      "inputs": [
        {
          "internalType": "uint256",
          "name": "",
          "type": "uint256"
        }
      ],
      "name": "votedVoters",
      "outputs": [
        {
          "internalType": "address",
          "name": "",
          "type": "address"
        }
      ],
      "stateMutability": "view",
      "type": "function"
    },
    {
      "inputs": [
        {
          "internalType": "address",
          "name": "_address",
          "type": "address"
        },
        {
          "internalType": "string",
          "name": "_name",
          "type": "string"
        },
        {
          "internalType": "string",
          "name": "_image",
          "type": "string"
        },
        {
          "internalType": "string",
          "name": "_ipfs",
          "type": "string"
        }
      ],
      "name": "voterRight",
      "outputs": [],
      "stateMutability": "nonpayable",
      "type": "function"
    },
    {
      "inputs": [
        {
          "internalType": "address",
          "name": "",
          "type": "address"
        }
      ],
      "name": "voters",
      "outputs": [
        {
          "internalType": "uint256",
          "name": "voter_voterId",
          "type": "uint256"
        },
        {
          "internalType": "string",
          "name": "voter_name",
          "type": "string"
        },
        {
          "internalType": "string",
          "name": "voter_image",
          "type": "string"
        },
        {
          "internalType": "address",
          "name": "voter_address",
          "type": "address"
        },
        {
          "internalType": "uint256",
          "name": "voter_allowed",
          "type": "uint256"
        },
        {
          "internalType": "bool",
          "name": "voter_voted",
          "type": "bool"
        },
        {
          "internalType": "uint256",
          "name": "voter_vote",
          "type": "uint256"
        },
        {
          "internalType": "string",
          "name": "voter_ipfs",
          "type": "string"
        }
      ],
      "stateMutability": "view",
      "type": "function"
    },
    {
      "inputs": [
        {
          "internalType": "uint256",
          "name": "",
          "type": "uint256"
        }
      ],
      "name": "votersAddress",
      "outputs": [
        {
          "internalType": "address",
          "name": "",
          "type": "address"
        }
      ],
      "stateMutability": "view",
      "type": "function"
    },
    {
      "inputs": [],
      "name": "votingOrganizer",
      "outputs": [
        {
          "internalType": "address",
          "name": "",
          "type": "address"
        }
      ],
      "stateMutability": "view",
      "type": "function"
    }
  ],
  "bytecode": "0x608060405234801561001057600080fd5b5033600260006101000a81548173ffffffffffffffffffffffffffffffffffffffff021916908373ffffffffffffffffffffffffffffffffffffffff1602179055506126bd806100616000396000f3fe608060405234801561001057600080fd5b50600436106101165760003560e01c80638ab66a90116100a2578063b28d92ae11610071578063b28d92ae1461031c578063b9be31521461033a578063c5036fd414610358578063c91ec7121461038e578063f7522a83146103aa57610116565b80638ab66a90146102735780638e945685146102a9578063a3ec138d146102c7578063a7388967146102fe57610116565b806343242daa116100e957806343242daa146101bb5780635cc48aa7146101eb5780635f74bbde1461020957806370218b85146102255780637831ffb31461024357610116565b80630361419e1461011b57806305ad45a4146101375780632a466ac7146101555780633a88251a1461018b575b600080fd5b61013560048036038101906101309190611c50565b6103c8565b005b61013f610655565b60405161014c9190611d24565b60405180910390f35b61016f600480360381019061016a9190611d3f565b610662565b6040516101829796959493929190611e03565b60405180910390f35b6101a560048036038101906101a09190611eba565b610aa9565b6040516101b29190611ee7565b60405180910390f35b6101d560048036038101906101d09190611eba565b610ae8565b6040516101e29190611ee7565b60405180910390f35b6101f3610b27565b6040516102009190611ee7565b60405180910390f35b610223600480360381019061021e9190611f02565b610b4d565b005b61022d610d15565b60405161023a9190612000565b60405180910390f35b61025d60048036038101906102589190611eba565b610da3565b60405161026a9190611ee7565b60405180910390f35b61028d60048036038101906102889190611d3f565b610de2565b6040516102a09796959493929190612022565b60405180910390f35b6102b1611064565b6040516102be9190612000565b60405180910390f35b6102e160048036038101906102dc9190611d3f565b6110f2565b6040516102f59897969594939291906120c8565b60405180910390f35b6103066112ff565b6040516103139190611d24565b60405180910390f35b61032461130b565b6040516103319190612000565b60405180910390f35b610342611399565b60405161034f9190611d24565b60405180910390f35b610372600480360381019061036d9190611d3f565b6113a5565b604051610385979695949392919061215b565b60405180910390f35b6103a860048036038101906103a391906121df565b61176d565b005b6103b26119c4565b6040516103bf9190611d24565b60405180910390f35b3373ffffffffffffffffffffffffffffffffffffffff16600260009054906101000a900473ffffffffffffffffffffffffffffffffffffffff1673ffffffffffffffffffffffffffffffffffffffff1614610458576040517f08c379a000000000000000000000000000000000000000000000000000000000815260040161044f90612316565b60405180910390fd5b61046260006119d1565b600061046e60006119e7565b90506000600760008773ffffffffffffffffffffffffffffffffffffffff1673ffffffffffffffffffffffffffffffffffffffff168152602001908152602001600020905060008160040154146104c457600080fd5b60018160040181905550848160010190805190602001906104e69291906119f5565b50838160020190805190602001906104ff9291906119f5565b50858160030160006101000a81548173ffffffffffffffffffffffffffffffffffffffff021916908373ffffffffffffffffffffffffffffffffffffffff1602179055508181600001819055506103e8816006018190555060008160050160006101000a81548160ff0219169083151502179055508281600701908051906020019061058c9291906119f5565b506006869080600181540180825580915050600190039060005260206000200160009091909190916101000a81548173ffffffffffffffffffffffffffffffffffffffff021916908373ffffffffffffffffffffffffffffffffffffffff160217905550817ff5f39971dd62d9929e3a9feaa6bb77fe7c7da0001babff8a65a7e51ad0201c1986868985600401548660050160009054906101000a900460ff1687600601548a6040516106459796959493929190612336565b60405180910390a2505050505050565b6000600680549050905090565b60608060006060600060606000600460008973ffffffffffffffffffffffffffffffffffffffff1673ffffffffffffffffffffffffffffffffffffffff168152602001908152602001600020600101600460008a73ffffffffffffffffffffffffffffffffffffffff1673ffffffffffffffffffffffffffffffffffffffff168152602001908152602001600020600201600460008b73ffffffffffffffffffffffffffffffffffffffff1673ffffffffffffffffffffffffffffffffffffffff16815260200190815260200160002060000154600460008c73ffffffffffffffffffffffffffffffffffffffff1673ffffffffffffffffffffffffffffffffffffffff168152602001908152602001600020600301600460008d73ffffffffffffffffffffffffffffffffffffffff1673ffffffffffffffffffffffffffffffffffffffff16815260200190815260200160002060040154600460008e73ffffffffffffffffffffffffffffffffffffffff1673ffffffffffffffffffffffffffffffffffffffff168152602001908152602001600020600601600460008f73ffffffffffffffffffffffffffffffffffffffff1673ffffffffffffffffffffffffffffffffffffffff16815260200190815260200160002060050160009054906101000a900473ffffffffffffffffffffffffffffffffffffffff1686805461086c906123e9565b80601f0160208091040260200160405190810160405280929190818152602001828054610898906123e9565b80156108e55780601f106108ba576101008083540402835291602001916108e5565b820191906000526020600020905b8154815290600101906020018083116108c857829003601f168201915b505050505096508580546108f8906123e9565b80601f0160208091040260200160405190810160405280929190818152602001828054610924906123e9565b80156109715780601f1061094657610100808354040283529160200191610971565b820191906000526020600020905b81548152906001019060200180831161095457829003601f168201915b50505050509550838054610984906123e9565b80601f01602080910402602001604051908101604052809291908181526020018280546109b0906123e9565b80156109fd5780601f106109d2576101008083540402835291602001916109fd565b820191906000526020600020905b8154815290600101906020018083116109e057829003601f168201915b50505050509350818054610a10906123e9565b80601f0160208091040260200160405190810160405280929190818152602001828054610a3c906123e9565b8015610a895780601f10610a5e57610100808354040283529160200191610a89565b820191906000526020600020905b815481529060010190602001808311610a6c57829003601f168201915b505050505091509650965096509650965096509650919395979092949650565b60038181548110610ab957600080fd5b906000526020600020016000915054906101000a900473ffffffffffffffffffffffffffffffffffffffff1681565b60068181548110610af857600080fd5b906000526020600020016000915054906101000a900473ffffffffffffffffffffffffffffffffffffffff1681565b600260009054906101000a900473ffffffffffffffffffffffffffffffffffffffff1681565b6000600760003373ffffffffffffffffffffffffffffffffffffffff1673ffffffffffffffffffffffffffffffffffffffff16815260200190815260200160002090508060050160009054906101000a900460ff1615610be2576040517f08c379a0000000000000000000000000000000000000000000000000000000008152600401610bd990612467565b60405180910390fd5b600081600401541415610c2a576040517f08c379a0000000000000000000000000000000000000000000000000000000008152600401610c21906124d3565b60405180910390fd5b60018160050160006101000a81548160ff0219169083151502179055508181600601819055506005339080600181540180825580915050600190039060005260206000200160009091909190916101000a81548173ffffffffffffffffffffffffffffffffffffffff021916908373ffffffffffffffffffffffffffffffffffffffff1602179055508060040154600460008573ffffffffffffffffffffffffffffffffffffffff1673ffffffffffffffffffffffffffffffffffffffff1681526020019081526020016000206004016000828254610d099190612522565b92505081905550505050565b60606003805480602002602001604051908101604052809291908181526020018280548015610d9957602002820191906000526020600020905b8160009054906101000a900473ffffffffffffffffffffffffffffffffffffffff1673ffffffffffffffffffffffffffffffffffffffff1681526020019060010190808311610d4f575b5050505050905090565b60058181548110610db357600080fd5b906000526020600020016000915054906101000a900473ffffffffffffffffffffffffffffffffffffffff1681565b6004602052806000526040600020600091509050806000015490806001018054610e0b906123e9565b80601f0160208091040260200160405190810160405280929190818152602001828054610e37906123e9565b8015610e845780601f10610e5957610100808354040283529160200191610e84565b820191906000526020600020905b815481529060010190602001808311610e6757829003601f168201915b505050505090806002018054610e99906123e9565b80601f0160208091040260200160405190810160405280929190818152602001828054610ec5906123e9565b8015610f125780601f10610ee757610100808354040283529160200191610f12565b820191906000526020600020905b815481529060010190602001808311610ef557829003601f168201915b505050505090806003018054610f27906123e9565b80601f0160208091040260200160405190810160405280929190818152602001828054610f53906123e9565b8015610fa05780601f10610f7557610100808354040283529160200191610fa0565b820191906000526020600020905b815481529060010190602001808311610f8357829003601f168201915b5050505050908060040154908060050160009054906101000a900473ffffffffffffffffffffffffffffffffffffffff1690806006018054610fe1906123e9565b80601f016020809104026020016040519081016040528092919081815260200182805461100d906123e9565b801561105a5780601f1061102f5761010080835404028352916020019161105a565b820191906000526020600020905b81548152906001019060200180831161103d57829003601f168201915b5050505050905087565b606060058054806020026020016040519081016040528092919081815260200182805480156110e857602002820191906000526020600020905b8160009054906101000a900473ffffffffffffffffffffffffffffffffffffffff1673ffffffffffffffffffffffffffffffffffffffff168152602001906001019080831161109e575b5050505050905090565b600760205280600052604060002060009150905080600001549080600101805461111b906123e9565b80601f0160208091040260200160405190810160405280929190818152602001828054611147906123e9565b80156111945780601f1061116957610100808354040283529160200191611194565b820191906000526020600020905b81548152906001019060200180831161117757829003601f168201915b5050505050908060020180546111a9906123e9565b80601f01602080910402602001604051908101604052809291908181526020018280546111d5906123e9565b80156112225780601f106111f757610100808354040283529160200191611222565b820191906000526020600020905b81548152906001019060200180831161120557829003601f168201915b5050505050908060030160009054906101000a900473ffffffffffffffffffffffffffffffffffffffff16908060040154908060050160009054906101000a900460ff169080600601549080600701805461127c906123e9565b80601f01602080910402602001604051908101604052809291908181526020018280546112a8906123e9565b80156112f55780601f106112ca576101008083540402835291602001916112f5565b820191906000526020600020905b8154815290600101906020018083116112d857829003601f168201915b5050505050905088565b60018060000154905081565b6060600680548060200260200160405190810160405280929190818152602001828054801561138f57602002820191906000526020600020905b8160009054906101000a900473ffffffffffffffffffffffffffffffffffffffff1673ffffffffffffffffffffffffffffffffffffffff1681526020019060010190808311611345575b5050505050905090565b60008060000154905081565b600060608060006060600080600760008973ffffffffffffffffffffffffffffffffffffffff1673ffffffffffffffffffffffffffffffffffffffff16815260200190815260200160002060000154600760008a73ffffffffffffffffffffffffffffffffffffffff1673ffffffffffffffffffffffffffffffffffffffff168152602001908152602001600020600101600760008b73ffffffffffffffffffffffffffffffffffffffff1673ffffffffffffffffffffffffffffffffffffffff168152602001908152602001600020600201600760008c73ffffffffffffffffffffffffffffffffffffffff1673ffffffffffffffffffffffffffffffffffffffff16815260200190815260200160002060030160009054906101000a900473ffffffffffffffffffffffffffffffffffffffff16600760008d73ffffffffffffffffffffffffffffffffffffffff1673ffffffffffffffffffffffffffffffffffffffff168152602001908152602001600020600701600760008e73ffffffffffffffffffffffffffffffffffffffff1673ffffffffffffffffffffffffffffffffffffffff16815260200190815260200160002060040154600760008f73ffffffffffffffffffffffffffffffffffffffff1673ffffffffffffffffffffffffffffffffffffffff16815260200190815260200160002060050160009054906101000a900460ff168580546115bc906123e9565b80601f01602080910402602001604051908101604052809291908181526020018280546115e8906123e9565b80156116355780601f1061160a57610100808354040283529160200191611635565b820191906000526020600020905b81548152906001019060200180831161161857829003601f168201915b50505050509550848054611648906123e9565b80601f0160208091040260200160405190810160405280929190818152602001828054611674906123e9565b80156116c15780601f10611696576101008083540402835291602001916116c1565b820191906000526020600020905b8154815290600101906020018083116116a457829003601f168201915b505050505094508280546116d4906123e9565b80601f0160208091040260200160405190810160405280929190818152602001828054611700906123e9565b801561174d5780601f106117225761010080835404028352916020019161174d565b820191906000526020600020905b81548152906001019060200180831161173057829003601f168201915b505050505092509650965096509650965096509650919395979092949650565b3373ffffffffffffffffffffffffffffffffffffffff16600260009054906101000a900473ffffffffffffffffffffffffffffffffffffffff1673ffffffffffffffffffffffffffffffffffffffff16146117fd576040517f08c379a00000000000000000000000000000000000000000000000000000000081526004016117f4906125ea565b60405180910390fd5b61180760016119d1565b600061181360016119e7565b90506000600460008873ffffffffffffffffffffffffffffffffffffffff1673ffffffffffffffffffffffffffffffffffffffff1681526020019081526020016000209050858160010190805190602001906118709291906119f5565b50848160020190805190602001906118899291906119f5565b50818160000181905550838160030190805190602001906118ab9291906119f5565b5060008160040181905550868160050160006101000a81548173ffffffffffffffffffffffffffffffffffffffff021916908373ffffffffffffffffffffffffffffffffffffffff160217905550828160060190805190602001906119119291906119f5565b506003879080600181540180825580915050600190039060005260206000200160009091909190916101000a81548173ffffffffffffffffffffffffffffffffffffffff021916908373ffffffffffffffffffffffffffffffffffffffff160217905550817fd297f12b256bb8485a6013fb5e302017018123e99a0ebb20756c09e1707b4b9087878785600401548c896040516119b39695949392919061260a565b60405180910390a250505050505050565b6000600380549050905090565b6001816000016000828254019250508190555050565b600081600001549050919050565b828054611a01906123e9565b90600052602060002090601f016020900481019282611a235760008555611a6a565b82601f10611a3c57805160ff1916838001178555611a6a565b82800160010185558215611a6a579182015b82811115611a69578251825591602001919060010190611a4e565b5b509050611a779190611a7b565b5090565b5b80821115611a94576000816000905550600101611a7c565b5090565b6000604051905090565b600080fd5b600080fd5b600073ffffffffffffffffffffffffffffffffffffffff82169050919050565b6000611ad782611aac565b9050919050565b611ae781611acc565b8114611af257600080fd5b50565b600081359050611b0481611ade565b92915050565b600080fd5b600080fd5b6000601f19601f8301169050919050565b7f4e487b7100000000000000000000000000000000000000000000000000000000600052604160045260246000fd5b611b5d82611b14565b810181811067ffffffffffffffff82111715611b7c57611b7b611b25565b5b80604052505050565b6000611b8f611a98565b9050611b9b8282611b54565b919050565b600067ffffffffffffffff821115611bbb57611bba611b25565b5b611bc482611b14565b9050602081019050919050565b82818337600083830152505050565b6000611bf3611bee84611ba0565b611b85565b905082815260208101848484011115611c0f57611c0e611b0f565b5b611c1a848285611bd1565b509392505050565b600082601f830112611c3757611c36611b0a565b5b8135611c47848260208601611be0565b91505092915050565b60008060008060808587031215611c6a57611c69611aa2565b5b6000611c7887828801611af5565b945050602085013567ffffffffffffffff811115611c9957611c98611aa7565b5b611ca587828801611c22565b935050604085013567ffffffffffffffff811115611cc657611cc5611aa7565b5b611cd287828801611c22565b925050606085013567ffffffffffffffff811115611cf357611cf2611aa7565b5b611cff87828801611c22565b91505092959194509250565b6000819050919050565b611d1e81611d0b565b82525050565b6000602082019050611d396000830184611d15565b92915050565b600060208284031215611d5557611d54611aa2565b5b6000611d6384828501611af5565b91505092915050565b600081519050919050565b600082825260208201905092915050565b60005b83811015611da6578082015181840152602081019050611d8b565b83811115611db5576000848401525b50505050565b6000611dc682611d6c565b611dd08185611d77565b9350611de0818560208601611d88565b611de981611b14565b840191505092915050565b611dfd81611acc565b82525050565b600060e0820190508181036000830152611e1d818a611dbb565b90508181036020830152611e318189611dbb565b9050611e406040830188611d15565b8181036060830152611e528187611dbb565b9050611e616080830186611d15565b81810360a0830152611e738185611dbb565b9050611e8260c0830184611df4565b98975050505050505050565b611e9781611d0b565b8114611ea257600080fd5b50565b600081359050611eb481611e8e565b92915050565b600060208284031215611ed057611ecf611aa2565b5b6000611ede84828501611ea5565b91505092915050565b6000602082019050611efc6000830184611df4565b92915050565b60008060408385031215611f1957611f18611aa2565b5b6000611f2785828601611af5565b9250506020611f3885828601611ea5565b9150509250929050565b600081519050919050565b600082825260208201905092915050565b6000819050602082019050919050565b611f7781611acc565b82525050565b6000611f898383611f6e565b60208301905092915050565b6000602082019050919050565b6000611fad82611f42565b611fb78185611f4d565b9350611fc283611f5e565b8060005b83811015611ff3578151611fda8882611f7d565b9750611fe583611f95565b925050600181019050611fc6565b5085935050505092915050565b6000602082019050818103600083015261201a8184611fa2565b905092915050565b600060e082019050612037600083018a611d15565b81810360208301526120498189611dbb565b9050818103604083015261205d8188611dbb565b905081810360608301526120718187611dbb565b90506120806080830186611d15565b61208d60a0830185611df4565b81810360c083015261209f8184611dbb565b905098975050505050505050565b60008115159050919050565b6120c2816120ad565b82525050565b6000610100820190506120de600083018b611d15565b81810360208301526120f0818a611dbb565b905081810360408301526121048189611dbb565b90506121136060830188611df4565b6121206080830187611d15565b61212d60a08301866120b9565b61213a60c0830185611d15565b81810360e083015261214c8184611dbb565b90509998505050505050505050565b600060e082019050612170600083018a611d15565b81810360208301526121828189611dbb565b905081810360408301526121968188611dbb565b90506121a56060830187611df4565b81810360808301526121b78186611dbb565b90506121c660a0830185611d15565b6121d360c08301846120b9565b98975050505050505050565b600080600080600060a086880312156121fb576121fa611aa2565b5b600061220988828901611af5565b955050602086013567ffffffffffffffff81111561222a57612229611aa7565b5b61223688828901611c22565b945050604086013567ffffffffffffffff81111561225757612256611aa7565b5b61226388828901611c22565b935050606086013567ffffffffffffffff81111561228457612283611aa7565b5b61229088828901611c22565b925050608086013567ffffffffffffffff8111156122b1576122b0611aa7565b5b6122bd88828901611c22565b9150509295509295909350565b7f4f6e6c79206f7267616e697a65722063616e2063726561746520766f74657200600082015250565b6000612300601f83611d77565b915061230b826122ca565b602082019050919050565b6000602082019050818103600083015261232f816122f3565b9050919050565b600060e0820190508181036000830152612350818a611dbb565b905081810360208301526123648189611dbb565b90506123736040830188611df4565b6123806060830187611d15565b61238d60808301866120b9565b61239a60a0830185611d15565b81810360c08301526123ac8184611dbb565b905098975050505050505050565b7f4e487b7100000000000000000000000000000000000000000000000000000000600052602260045260246000fd5b6000600282049050600182168061240157607f821691505b60208210811415612415576124146123ba565b5b50919050565b7f596f75206861766520616c726561647920766f74656400000000000000000000600082015250565b6000612451601683611d77565b915061245c8261241b565b602082019050919050565b6000602082019050818103600083015261248081612444565b9050919050565b7f596f752068617665206e6f20726967687420746f20766f746500000000000000600082015250565b60006124bd601983611d77565b91506124c882612487565b602082019050919050565b600060208201905081810360008301526124ec816124b0565b9050919050565b7f4e487b7100000000000000000000000000000000000000000000000000000000600052601160045260246000fd5b600061252d82611d0b565b915061253883611d0b565b9250827fffffffffffffffffffffffffffffffffffffffffffffffffffffffffffffffff0382111561256d5761256c6124f3565b5b828201905092915050565b7f4f6e6c79206f7267616e697a65722063616e20617574686f72697a652063616e60008201527f6469646174650000000000000000000000000000000000000000000000000000602082015250565b60006125d4602683611d77565b91506125df82612578565b604082019050919050565b60006020820190508181036000830152612603816125c7565b9050919050565b600060c08201905081810360008301526126248189611dbb565b905081810360208301526126388188611dbb565b9050818103604083015261264c8187611dbb565b905061265b6060830186611d15565b6126686080830185611df4565b81810360a083015261267a8184611dbb565b905097965050505050505056fea2646970667358221220322818184e4835adff3369eb03abba556c5592b7fa07a980fa71a3360e654bf864736f6c63430008090033",
  "linkReferences": {},
  "deployedLinkReferences": {}
}